{
  "_format": "hh-sol-artifact-1",
  "contractName": "UniBank",
  "sourceName": "contracts/UniBank.sol",
  "abi": [
    {
      "inputs": [],
      "stateMutability": "nonpayable",
      "type": "constructor"
    },
    {
      "anonymous": false,
      "inputs": [
        {
          "indexed": true,
          "internalType": "address",
          "name": "account",
          "type": "address"
        }
      ],
      "name": "AdminAdded",
      "type": "event"
    },
    {
      "anonymous": false,
      "inputs": [
        {
          "indexed": true,
          "internalType": "address",
          "name": "account",
          "type": "address"
        }
      ],
      "name": "AdminRevoked",
      "type": "event"
    },
    {
      "anonymous": false,
      "inputs": [],
      "name": "BankActivated",
      "type": "event"
    },
    {
      "anonymous": false,
      "inputs": [],
      "name": "BankDeactivated",
      "type": "event"
    },
    {
      "anonymous": false,
      "inputs": [
        {
          "indexed": true,
          "internalType": "address",
          "name": "account",
          "type": "address"
        },
        {
          "indexed": true,
          "internalType": "uint256",
          "name": "depositIndex",
          "type": "uint256"
        },
        {
          "indexed": false,
          "internalType": "uint256",
          "name": "amount",
          "type": "uint256"
        },
        {
          "indexed": false,
          "internalType": "uint256",
          "name": "rateBP",
          "type": "uint256"
        },
        {
          "indexed": false,
          "internalType": "uint256",
          "name": "timestamp",
          "type": "uint256"
        }
      ],
      "name": "DepositMade",
      "type": "event"
    },
    {
      "anonymous": false,
      "inputs": [
        {
          "indexed": true,
          "internalType": "address",
          "name": "by",
          "type": "address"
        },
        {
          "indexed": false,
          "internalType": "uint256",
          "name": "oldRateBP",
          "type": "uint256"
        },
        {
          "indexed": false,
          "internalType": "uint256",
          "name": "newRateBP",
          "type": "uint256"
        }
      ],
      "name": "InterestRateChanged",
      "type": "event"
    },
    {
      "anonymous": false,
      "inputs": [
        {
          "indexed": true,
          "internalType": "address",
          "name": "from",
          "type": "address"
        },
        {
          "indexed": false,
          "internalType": "uint256",
          "name": "amount",
          "type": "uint256"
        },
        {
          "indexed": false,
          "internalType": "uint256",
          "name": "newTotalReserves",
          "type": "uint256"
        }
      ],
      "name": "ReserveAdded",
      "type": "event"
    },
    {
      "anonymous": false,
      "inputs": [
        {
          "indexed": true,
          "internalType": "address",
          "name": "account",
          "type": "address"
        }
      ],
      "name": "UserRemoved",
      "type": "event"
    },
    {
      "anonymous": false,
      "inputs": [
        {
          "indexed": true,
          "internalType": "address",
          "name": "account",
          "type": "address"
        }
      ],
      "name": "UserWhitelisted",
      "type": "event"
    },
    {
      "anonymous": false,
      "inputs": [
        {
          "indexed": true,
          "internalType": "address",
          "name": "account",
          "type": "address"
        },
        {
          "indexed": true,
          "internalType": "uint256",
          "name": "depositIndex",
          "type": "uint256"
        },
        {
          "indexed": false,
          "internalType": "uint256",
          "name": "principal",
          "type": "uint256"
        },
        {
          "indexed": false,
          "internalType": "uint256",
          "name": "interest",
          "type": "uint256"
        },
        {
          "indexed": false,
          "internalType": "uint256",
          "name": "timestamp",
          "type": "uint256"
        }
      ],
      "name": "WithdrawalMade",
      "type": "event"
    },
    {
      "stateMutability": "payable",
      "type": "fallback"
    },
    {
      "inputs": [],
      "name": "DEPOSIT_LOCK_MINUTES",
      "outputs": [
        {
          "internalType": "uint256",
          "name": "",
          "type": "uint256"
        }
      ],
      "stateMutability": "view",
      "type": "function"
    },
    {
      "inputs": [],
      "name": "active",
      "outputs": [
        {
          "internalType": "bool",
          "name": "",
          "type": "bool"
        }
      ],
      "stateMutability": "view",
      "type": "function"
    },
    {
      "inputs": [
        {
          "internalType": "address",
          "name": "account",
          "type": "address"
        }
      ],
      "name": "addAdmin",
      "outputs": [],
      "stateMutability": "nonpayable",
      "type": "function"
    },
    {
      "inputs": [
        {
          "internalType": "address",
          "name": "account",
          "type": "address"
        }
      ],
      "name": "addAuthorizedUser",
      "outputs": [],
      "stateMutability": "nonpayable",
      "type": "function"
    },
    {
      "inputs": [],
      "name": "addReserves",
      "outputs": [],
      "stateMutability": "payable",
      "type": "function"
    },
    {
      "inputs": [
        {
          "internalType": "address",
          "name": "",
          "type": "address"
        }
      ],
      "name": "admins",
      "outputs": [
        {
          "internalType": "bool",
          "name": "",
          "type": "bool"
        }
      ],
      "stateMutability": "view",
      "type": "function"
    },
    {
      "inputs": [
        {
          "internalType": "address",
          "name": "",
          "type": "address"
        }
      ],
      "name": "authorizedUsers",
      "outputs": [
        {
          "internalType": "bool",
          "name": "",
          "type": "bool"
        }
      ],
      "stateMutability": "view",
      "type": "function"
    },
    {
      "inputs": [],
      "name": "deposit",
      "outputs": [],
      "stateMutability": "payable",
      "type": "function"
    },
    {
      "inputs": [
        {
          "internalType": "address",
          "name": "user",
          "type": "address"
        },
        {
          "internalType": "uint256",
          "name": "depositIndex",
          "type": "uint256"
        }
      ],
      "name": "getDeposit",
      "outputs": [
        {
          "internalType": "uint256",
          "name": "amount",
          "type": "uint256"
        },
        {
          "internalType": "uint256",
          "name": "depositTimestamp",
          "type": "uint256"
        },
        {
          "internalType": "uint256",
          "name": "interestRateBPAtDeposit",
          "type": "uint256"
        },
        {
          "internalType": "uint256",
          "name": "maturityPeriodMinutes",
          "type": "uint256"
        },
        {
          "internalType": "bool",
          "name": "withdrawn",
          "type": "bool"
        }
      ],
      "stateMutability": "view",
      "type": "function"
    },
    {
      "inputs": [],
      "name": "getEthBalance",
      "outputs": [
        {
          "internalType": "uint256",
          "name": "",
          "type": "uint256"
        }
      ],
      "stateMutability": "view",
      "type": "function"
    },
    {
      "inputs": [],
      "name": "getReserves",
      "outputs": [
        {
          "internalType": "uint256",
          "name": "",
          "type": "uint256"
        }
      ],
      "stateMutability": "view",
      "type": "function"
    },
    {
      "inputs": [
        {
          "internalType": "address",
          "name": "user",
          "type": "address"
        }
      ],
      "name": "getUserDepositsCount",
      "outputs": [
        {
          "internalType": "uint256",
          "name": "",
          "type": "uint256"
        }
      ],
      "stateMutability": "view",
      "type": "function"
    },
    {
      "inputs": [],
      "name": "interestRatePerMinuteBP",
      "outputs": [
        {
          "internalType": "uint256",
          "name": "",
          "type": "uint256"
        }
      ],
      "stateMutability": "view",
      "type": "function"
    },
    {
      "inputs": [],
      "name": "owner",
      "outputs": [
        {
          "internalType": "address",
          "name": "",
          "type": "address"
        }
      ],
      "stateMutability": "view",
      "type": "function"
    },
    {
      "inputs": [
        {
          "internalType": "address",
          "name": "user",
          "type": "address"
        },
        {
          "internalType": "uint256",
          "name": "depositIndex",
          "type": "uint256"
        }
      ],
      "name": "previewInterest",
      "outputs": [
        {
          "internalType": "uint256",
          "name": "",
          "type": "uint256"
        }
      ],
      "stateMutability": "view",
      "type": "function"
    },
    {
      "inputs": [
        {
          "internalType": "address",
          "name": "account",
          "type": "address"
        }
      ],
      "name": "removeAuthorizedUser",
      "outputs": [],
      "stateMutability": "nonpayable",
      "type": "function"
    },
    {
      "inputs": [
        {
          "internalType": "address",
          "name": "account",
          "type": "address"
        }
      ],
      "name": "revokeAdmin",
      "outputs": [],
      "stateMutability": "nonpayable",
      "type": "function"
    },
    {
      "inputs": [
        {
          "internalType": "bool",
          "name": "_bankStatus",
          "type": "bool"
        }
      ],
      "name": "setBankStatus",
      "outputs": [],
      "stateMutability": "nonpayable",
      "type": "function"
    },
    {
      "inputs": [
        {
          "internalType": "uint256",
          "name": "newRateBP",
          "type": "uint256"
        }
      ],
      "name": "setInterestRatePerMinuteBP",
      "outputs": [],
      "stateMutability": "nonpayable",
      "type": "function"
    },
    {
      "inputs": [],
      "name": "totalReserves",
      "outputs": [
        {
          "internalType": "uint256",
          "name": "",
          "type": "uint256"
        }
      ],
      "stateMutability": "view",
      "type": "function"
    },
    {
      "inputs": [
        {
          "internalType": "uint256",
          "name": "depositIndex",
          "type": "uint256"
        }
      ],
      "name": "withdrawDeposit",
      "outputs": [],
      "stateMutability": "nonpayable",
      "type": "function"
    },
    {
      "stateMutability": "payable",
      "type": "receive"
    }
  ],
  "bytecode": "0x6080604052348015600f57600080fd5b506000805460ff60a01b1933166001600160a81b031990911617815560015561152d8061003d6000396000f3fe60806040526004361061012e5760003560e01c8063429b62e5116100ab5780638da5cb5b1161006f5780638da5cb5b146104315780638f840ddd14610469578063b70bb1171461047f578063bdf268c614610487578063d0e30db01461049c578063d6a13301146104a457610199565b8063429b62e51461038e578063455f6f0f146103be57806370480275146103de57806370ed0ada146103fe57806389fabc801461041157610199565b806323bb1e29116100f257806323bb1e29146102ce5780632726b506146102e45780632d3456701461032e57806333289a461461034e57806335116a511461036e57610199565b806302fb0c5e1461020757806305db1ecd1461023d5780630902f1ac1461025f578063177d2a741461027e5780631828983a1461029e57610199565b366101995760405162461bcd60e51b815260206004820152603060248201527f506c6561736520757365206465706f7369742829206f7220616464526573657260448201526f3b32b9941490333ab731ba34b7b7399760811b60648201526084015b60405180910390fd5b60405162461bcd60e51b815260206004820152603f60248201527f46756e6374696f6e20646f6573206e6f742065786973742e20506c656173652060448201527f757365206465706f7369742829206f7220616464526573657276657328292e006064820152608401610190565b34801561021357600080fd5b5060005461022890600160a01b900460ff1681565b60405190151581526020015b60405180910390f35b34801561024957600080fd5b5061025d610258366004611316565b6104da565b005b34801561026b57600080fd5b506002545b604051908152602001610234565b34801561028a57600080fd5b5061025d61029936600461135b565b61057e565b3480156102aa57600080fd5b506102286102b936600461135b565b60046020526000908152604090205460ff1681565b3480156102da57600080fd5b5061027060015481565b3480156102f057600080fd5b506103046102ff366004611376565b6106c0565b6040805195865260208601949094529284019190915260608301521515608082015260a001610234565b34801561033a57600080fd5b5061025d61034936600461135b565b610793565b34801561035a57600080fd5b5061025d6103693660046113a0565b61085e565b34801561037a57600080fd5b50610270610389366004611376565b610c3b565b34801561039a57600080fd5b506102286103a936600461135b565b60036020526000908152604090205460ff1681565b3480156103ca57600080fd5b5061025d6103d93660046113a0565b610d7a565b3480156103ea57600080fd5b5061025d6103f936600461135b565b610e05565b34801561040a57600080fd5b5047610270565b34801561041d57600080fd5b5061025d61042c36600461135b565b610f21565b34801561043d57600080fd5b50600054610451906001600160a01b031681565b6040516001600160a01b039091168152602001610234565b34801561047557600080fd5b5061027060025481565b61025d61100d565b34801561049357600080fd5b50610270600281565b61025d6110f6565b3480156104b057600080fd5b506102706104bf36600461135b565b6001600160a01b031660009081526005602052604090205490565b6000546001600160a01b031633146105045760405162461bcd60e51b8152600401610190906113b9565b6000805482158015600160a01b0260ff60a01b1990921691909117909155610552576040517fc62622ec104d1750be390a06e4f2bb188d11047cc19741af5a25fea35a88523890600090a150565b6040517f3fdf02c4022d126265e7eeb5b64dbabfff5c182da40cff9afb891d0180a7ad0a90600090a150565b6000546001600160a01b03163314806105a657503360009081526003602052604090205460ff165b6105c25760405162461bcd60e51b8152600401610190906113f0565b6001600160a01b03811661060b5760405162461bcd60e51b815260206004820152601060248201526f24b73b30b634b21030b2323932b9b99760811b6044820152606401610190565b6001600160a01b03811660009081526004602052604090205460ff16156106745760405162461bcd60e51b815260206004820152601860248201527f5573657220616c726561647920617574686f72697a65642e00000000000000006044820152606401610190565b6001600160a01b038116600081815260046020526040808220805460ff19166001179055517f7409cb8e690bcd1487fd4fd27dad3fa92388d201ba6f953631d6d6b26299f8499190a250565b6001600160a01b038216600090815260056020526040812054819081908190819086106106ff5760405162461bcd60e51b815260040161019090611435565b6001600160a01b03871660009081526005602052604081208054889081106107295761072961146c565b60009182526020918290206040805160a08101825260059390930290910180548084526001820154948401859052600282015492840183905260038201546060850181905260049092015460ff16151560809094018490529c939b50909950975095509350505050565b6000546001600160a01b031633146107bd5760405162461bcd60e51b8152600401610190906113b9565b6001600160a01b03811660009081526003602052604090205460ff166108155760405162461bcd60e51b815260206004820152600d60248201526c2737ba1030b71030b236b4b71760991b6044820152606401610190565b6001600160a01b038116600081815260036020526040808220805460ff19169055517f631ff1c4e1a02c54b480a34b810e03bcee61fe38efcb243930a7f820914923e29190a250565b600054600160a01b900460ff166108ad5760405162461bcd60e51b81526020600482015260136024820152722130b7359034b9903737ba1030b1ba34bb329760691b6044820152606401610190565b3360009081526004602052604090205460ff166109065760405162461bcd60e51b81526020600482015260176024820152762ab9b2b91034b9903737ba1030baba3437b934bd32b21760491b6044820152606401610190565b3360009081526005602052604090205481106109345760405162461bcd60e51b815260040161019090611435565b3360009081526005602052604081208054839081106109555761095561146c565b60009182526020909120600590910201600481015490915060ff16156109bd5760405162461bcd60e51b815260206004820152601a60248201527f4465706f73697420616c72656164792077697468647261776e2e0000000000006044820152606401610190565b60008160030154603c6109d09190611498565b82600101546109df91906114af565b905080421015610a405760405162461bcd60e51b815260206004820152602660248201527f596f7572206465706f73697420686173206e6f742072656163686564206d61746044820152653ab934ba3c9760d11b6064820152608401610190565b6000603c836001015442610a5491906114c2565b610a5e91906114d5565b90506000610a7584600001548560020154846112e4565b9050806002541015610ada5760405162461bcd60e51b815260206004820152602860248201527f496e73756666696369656e7420726573657276657320746f20636f7665722069604482015267373a32b932b9ba1760c11b6064820152608401610190565b83546000610ae883836114af565b905080471015610b3a5760405162461bcd60e51b815260206004820152601e60248201527f496e73756666696369656e7420636f6e74726163742062616c616e63652e00006044820152606401610190565b60048601805460ff1916600117905560028054849190600090610b5e9084906114c2565b9091555050604051600090339083908381818185875af1925050503d8060008114610ba5576040519150601f19603f3d011682016040523d82523d6000602084013e610baa565b606091505b5050905080610bee5760405162461bcd60e51b815260206004820152601060248201526f2a3930b739b332b9103330b4b632b21760811b6044820152606401610190565b604080518481526020810186905242818301529051899133917f92f2787b755dae547f1701582fe74c7abf277ec14db316dd01abc69cacf7a2599181900360600190a35050505050505050565b6001600160a01b0382166000908152600560205260408120548210610c725760405162461bcd60e51b815260040161019090611435565b6001600160a01b0383166000908152600560205260408120805484908110610c9c57610c9c61146c565b60009182526020918290206040805160a0810182526005909302909101805483526001810154938301939093526002830154908201526003820154606082015260049091015460ff161580156080830152909150610d3c5760405162461bcd60e51b815260206004820152601a60248201527f4465706f73697420616c72656164792077697468647261776e2e0000000000006044820152606401610190565b6000603c826020015142610d5091906114c2565b610d5a91906114d5565b9050610d6f82600001518360400151836112e4565b925050505b92915050565b6000546001600160a01b0316331480610da257503360009081526003602052604090205460ff165b610dbe5760405162461bcd60e51b8152600401610190906113f0565b6001805490829055604080518281526020810184905233917f4ad1760f9863afe7ede7e9620b2433ac9991ccadb323e458edce96a6192cd55b910160405180910390a25050565b6000546001600160a01b03163314610e2f5760405162461bcd60e51b8152600401610190906113b9565b6001600160a01b038116610e785760405162461bcd60e51b815260206004820152601060248201526f24b73b30b634b21030b2323932b9b99760811b6044820152606401610190565b6001600160a01b03811660009081526003602052604090205460ff1615610ed55760405162461bcd60e51b815260206004820152601160248201527020b63932b0b23c9030b71030b236b4b71760791b6044820152606401610190565b6001600160a01b038116600081815260036020526040808220805460ff19166001179055517f44d6d25963f097ad14f29f06854a01f575648a1ef82f30e562ccd3889717e3399190a250565b6000546001600160a01b0316331480610f4957503360009081526003602052604090205460ff165b610f655760405162461bcd60e51b8152600401610190906113f0565b6001600160a01b03811660009081526004602052604090205460ff16610fc45760405162461bcd60e51b81526020600482015260146024820152732ab9b2b9103737ba1030baba3437b934bd32b21760611b6044820152606401610190565b6001600160a01b038116600081815260046020526040808220805460ff19169055517fe9dce8c992623ce791725b21e857e33248d1f190a25b5168313420eebdaae99d9190a250565b6000546001600160a01b031633146110375760405162461bcd60e51b8152600401610190906113b9565b600034116110995760405162461bcd60e51b815260206004820152602960248201527f5265736572766520616d6f756e74206d757374206265206772656174657220746044820152683430b7103d32b9379760b91b6064820152608401610190565b34600260008282546110ab91906114af565b909155505060025460405133917fd83d9c22897549f8672632502f5fa0f5e9a39e824aa7685ff4278d425ef811cf916110ec91348252602082015260400190565b60405180910390a2565b600054600160a01b900460ff166111455760405162461bcd60e51b81526020600482015260136024820152722130b7359034b9903737ba1030b1ba34bb329760691b6044820152606401610190565b3360009081526004602052604090205460ff1661119e5760405162461bcd60e51b81526020600482015260176024820152762ab9b2b91034b9903737ba1030baba3437b934bd32b21760491b6044820152606401610190565b600034116112005760405162461bcd60e51b815260206004820152602960248201527f4465706f73697420616d6f756e74206d757374206265206772656174657220746044820152683430b7103d32b9379760b91b6064820152608401610190565b6040805160a081018252348152426020808301918252600180548486019081526002606086018181526000608088018181523380835260058089529a8320805480890182558185529884208b5199909c02909b0197885597518787015593519286019290925551600385015590516004909301805460ff191693151593909317909255918152925491929161129591906114c2565b6001546040805134815260208101929092524290820152909150819033907ff0c0eca9f6ed9ad8da1bc85eb9c9ee44f49b92275543eec272134ef0b091d10a9060600160405180910390a35050565b6000806127106112f48587611498565b6112fe91906114d5565b9050600061130c8483611498565b9695505050505050565b60006020828403121561132857600080fd5b8135801515811461133857600080fd5b9392505050565b80356001600160a01b038116811461135657600080fd5b919050565b60006020828403121561136d57600080fd5b6113388261133f565b6000806040838503121561138957600080fd5b6113928361133f565b946020939093013593505050565b6000602082840312156113b257600080fd5b5035919050565b6020808252601c908201527f4f6e6c79206f776e65722063616e206578656375746520746869732e00000000604082015260600190565b60208082526025908201527f4f6e6c79206f776e6572206f722061646d696e2063616e2065786563757465206040820152643a3434b99760d91b606082015260800190565b60208082526017908201527f4465706f73697420646f6573206e6f742065786973742e000000000000000000604082015260600190565b634e487b7160e01b600052603260045260246000fd5b634e487b7160e01b600052601160045260246000fd5b8082028115828204841417610d7457610d74611482565b80820180821115610d7457610d74611482565b81810381811115610d7457610d74611482565b6000826114f257634e487b7160e01b600052601260045260246000fd5b50049056fea264697066735822122052e0fa42743b42c7d6c453d3d2e0ab03ec193cd87d80213a15756b1ed0533ac764736f6c634300081a0033",
  "linkReferences": {},
  "deployedLinkReferences": {}
}